{
  "_format": "hh-sol-artifact-1",
  "contractName": "bioDivAndHer",
  "sourceName": "contracts/bioDivAndHer.sol",
  "abi": [
    {
      "inputs": [
        {
          "internalType": "uint256",
          "name": "_projectID",
          "type": "uint256"
        },
        {
          "internalType": "uint256",
          "name": "_totalCreditAlloted",
          "type": "uint256"
        }
      ],
      "name": "closeProjectOrActivity",
      "outputs": [],
      "stateMutability": "nonpayable",
      "type": "function"
    },
    {
      "inputs": [
        {
          "internalType": "uint256",
          "name": "",
          "type": "uint256"
        },
        {
          "internalType": "uint256",
          "name": "",
          "type": "uint256"
        }
      ],
      "name": "comments",
      "outputs": [
        {
          "internalType": "string",
          "name": "",
          "type": "string"
        }
      ],
      "stateMutability": "view",
      "type": "function"
    },
    {
      "inputs": [
        {
          "internalType": "uint256",
          "name": "_projectID",
          "type": "uint256"
        },
        {
          "internalType": "string",
          "name": "_comment",
          "type": "string"
        }
      ],
      "name": "commentsInACampaginOrActivity",
      "outputs": [],
      "stateMutability": "nonpayable",
      "type": "function"
    },
    {
      "inputs": [
        {
          "internalType": "uint256",
          "name": "_projectID",
          "type": "uint256"
        },
        {
          "internalType": "bool",
          "name": "_wantToVolenteer",
          "type": "bool"
        }
      ],
      "name": "contribute",
      "outputs": [],
      "stateMutability": "payable",
      "type": "function"
    },
    {
      "inputs": [
        {
          "internalType": "uint256",
          "name": "",
          "type": "uint256"
        },
        {
          "internalType": "uint256",
          "name": "",
          "type": "uint256"
        }
      ],
      "name": "contributors",
      "outputs": [
        {
          "internalType": "address",
          "name": "contributor",
          "type": "address"
        },
        {
          "internalType": "uint256",
          "name": "amount",
          "type": "uint256"
        },
        {
          "internalType": "uint256",
          "name": "timestamp",
          "type": "uint256"
        }
      ],
      "stateMutability": "view",
      "type": "function"
    },
    {
      "inputs": [
        {
          "internalType": "string",
          "name": "_projectType",
          "type": "string"
        },
        {
          "internalType": "string",
          "name": "_name",
          "type": "string"
        },
        {
          "internalType": "string",
          "name": "_projectDescription",
          "type": "string"
        },
        {
          "internalType": "string",
          "name": "_location",
          "type": "string"
        },
        {
          "internalType": "uint256",
          "name": "_totalFundGoalNeeded",
          "type": "uint256"
        }
      ],
      "name": "createProject",
      "outputs": [],
      "stateMutability": "nonpayable",
      "type": "function"
    },
    {
      "inputs": [
        {
          "internalType": "uint256",
          "name": "",
          "type": "uint256"
        },
        {
          "internalType": "address",
          "name": "",
          "type": "address"
        }
      ],
      "name": "credits",
      "outputs": [
        {
          "internalType": "uint256",
          "name": "",
          "type": "uint256"
        }
      ],
      "stateMutability": "view",
      "type": "function"
    },
    {
      "inputs": [
        {
          "internalType": "uint256",
          "name": "_projectID",
          "type": "uint256"
        },
        {
          "internalType": "address",
          "name": "_participant",
          "type": "address"
        }
      ],
      "name": "getCreditBalance",
      "outputs": [
        {
          "internalType": "uint256",
          "name": "",
          "type": "uint256"
        }
      ],
      "stateMutability": "view",
      "type": "function"
    },
    {
      "inputs": [
        {
          "internalType": "uint256",
          "name": "_projectID",
          "type": "uint256"
        }
      ],
      "name": "getTotalContributors",
      "outputs": [
        {
          "internalType": "uint256",
          "name": "",
          "type": "uint256"
        }
      ],
      "stateMutability": "view",
      "type": "function"
    },
    {
      "inputs": [
        {
          "internalType": "address",
          "name": "_user",
          "type": "address"
        }
      ],
      "name": "getTotalCredits",
      "outputs": [
        {
          "internalType": "uint256",
          "name": "",
          "type": "uint256"
        }
      ],
      "stateMutability": "view",
      "type": "function"
    },
    {
      "inputs": [
        {
          "internalType": "uint256",
          "name": "_projectID",
          "type": "uint256"
        }
      ],
      "name": "getTotalFunds",
      "outputs": [
        {
          "internalType": "uint256",
          "name": "",
          "type": "uint256"
        }
      ],
      "stateMutability": "view",
      "type": "function"
    },
    {
      "inputs": [
        {
          "internalType": "address",
          "name": "_user",
          "type": "address"
        }
      ],
      "name": "getTotalParticipations",
      "outputs": [
        {
          "internalType": "uint256",
          "name": "",
          "type": "uint256"
        }
      ],
      "stateMutability": "view",
      "type": "function"
    },
    {
      "inputs": [
        {
          "internalType": "uint256",
          "name": "",
          "type": "uint256"
        }
      ],
      "name": "isProjectOrActivityCompleted",
      "outputs": [
        {
          "internalType": "bool",
          "name": "",
          "type": "bool"
        }
      ],
      "stateMutability": "view",
      "type": "function"
    },
    {
      "inputs": [
        {
          "internalType": "uint256",
          "name": "_projectID",
          "type": "uint256"
        },
        {
          "internalType": "address",
          "name": "_participant",
          "type": "address"
        }
      ],
      "name": "isVolenteerParticipated",
      "outputs": [
        {
          "internalType": "bool",
          "name": "",
          "type": "bool"
        }
      ],
      "stateMutability": "view",
      "type": "function"
    },
    {
      "inputs": [
        {
          "internalType": "uint256",
          "name": "_projectID",
          "type": "uint256"
        },
        {
          "internalType": "address",
          "name": "_person",
          "type": "address"
        }
      ],
      "name": "markParticipate",
      "outputs": [],
      "stateMutability": "nonpayable",
      "type": "function"
    },
    {
      "inputs": [
        {
          "internalType": "uint256",
          "name": "_projectID",
          "type": "uint256"
        }
      ],
      "name": "participateInProjectOrAcitvity",
      "outputs": [],
      "stateMutability": "nonpayable",
      "type": "function"
    },
    {
      "inputs": [],
      "name": "projectCount",
      "outputs": [
        {
          "internalType": "uint256",
          "name": "",
          "type": "uint256"
        }
      ],
      "stateMutability": "view",
      "type": "function"
    },
    {
      "inputs": [
        {
          "internalType": "uint256",
          "name": "",
          "type": "uint256"
        }
      ],
      "name": "projects",
      "outputs": [
        {
          "internalType": "string",
          "name": "projectType",
          "type": "string"
        },
        {
          "internalType": "uint256",
          "name": "projectID",
          "type": "uint256"
        },
        {
          "internalType": "string",
          "name": "name",
          "type": "string"
        },
        {
          "internalType": "string",
          "name": "projectDescription",
          "type": "string"
        },
        {
          "internalType": "string",
          "name": "location",
          "type": "string"
        },
        {
          "internalType": "address",
          "name": "campaginCreator",
          "type": "address"
        },
        {
          "internalType": "bool",
          "name": "status",
          "type": "bool"
        },
        {
          "internalType": "uint256",
          "name": "totalFundGoalNeeded",
          "type": "uint256"
        },
        {
          "internalType": "uint256",
          "name": "totalFundCurrentStatus",
          "type": "uint256"
        }
      ],
      "stateMutability": "view",
      "type": "function"
    },
    {
      "inputs": [
        {
          "internalType": "address",
          "name": "",
          "type": "address"
        }
      ],
      "name": "totalCredits",
      "outputs": [
        {
          "internalType": "uint256",
          "name": "",
          "type": "uint256"
        }
      ],
      "stateMutability": "view",
      "type": "function"
    },
    {
      "inputs": [
        {
          "internalType": "address",
          "name": "",
          "type": "address"
        }
      ],
      "name": "totalParticipations",
      "outputs": [
        {
          "internalType": "uint256",
          "name": "",
          "type": "uint256"
        }
      ],
      "stateMutability": "view",
      "type": "function"
    },
    {
      "inputs": [
        {
          "internalType": "uint256",
          "name": "",
          "type": "uint256"
        },
        {
          "internalType": "uint256",
          "name": "",
          "type": "uint256"
        }
      ],
      "name": "volenteers",
      "outputs": [
        {
          "internalType": "address",
          "name": "",
          "type": "address"
        }
      ],
      "stateMutability": "view",
      "type": "function"
    },
    {
      "inputs": [
        {
          "internalType": "uint256",
          "name": "",
          "type": "uint256"
        },
        {
          "internalType": "uint256",
          "name": "",
          "type": "uint256"
        }
      ],
      "name": "volenteersParticipated",
      "outputs": [
        {
          "internalType": "address",
          "name": "",
          "type": "address"
        }
      ],
      "stateMutability": "view",
      "type": "function"
    },
    {
      "inputs": [
        {
          "internalType": "uint256",
          "name": "_projectID",
          "type": "uint256"
        }
      ],
      "name": "withdrawFunds",
      "outputs": [],
      "stateMutability": "nonpayable",
      "type": "function"
    }
  ],
  "bytecode": "0x608060405234801561001057600080fd5b5061278f806100206000396000f3fe6080604052600436106101405760003560e01c8063986eca43116100b6578063cc89a0121161006f578063cc89a012146104d9578063cf01c35614610516578063d29f0bbb14610553578063ec6f72ed1461057c578063f6cde22a146105a5578063fc6c776f146105e257610140565b8063986eca43146103935780639d895b1c146103d0578063a78c389a1461040d578063a8ec891814610436578063cb2272131461045f578063cc84ad021461049c57610140565b80632efa53b5116101085780632efa53b51461023557806336fbad261461027257806354346b661461029d57806356c31f5a146102dc578063623994a6146103195780636387310d1461035657610140565b8063099107ad14610145578063107046bd14610182578063155dd5ee146101c757806317a85190146101f057806329912b5414610219575b600080fd5b34801561015157600080fd5b5061016c60048036038101906101679190611927565b61061f565b6040516101799190611963565b60405180910390f35b34801561018e57600080fd5b506101a960048036038101906101a49190611927565b61063f565b6040516101be99989796959493929190611a6a565b60405180910390f35b3480156101d357600080fd5b506101ee60048036038101906101e99190611927565b6108da565b005b3480156101fc57600080fd5b5061021760048036038101906102129190611c48565b610afa565b005b610233600480360381019061022e9190611cd0565b610c3f565b005b34801561024157600080fd5b5061025c60048036038101906102579190611d3c565b610e0c565b6040516102699190611963565b60405180910390f35b34801561027e57600080fd5b50610287610e55565b6040516102949190611963565b60405180910390f35b3480156102a957600080fd5b506102c460048036038101906102bf9190611d69565b610e5b565b6040516102d393929190611da9565b60405180910390f35b3480156102e857600080fd5b5061030360048036038101906102fe9190611d3c565b610ec2565b6040516103109190611963565b60405180910390f35b34801561032557600080fd5b50610340600480360381019061033b9190611d69565b610f0b565b60405161034d9190611de0565b60405180910390f35b34801561036257600080fd5b5061037d60048036038101906103789190611dfb565b610f59565b60405161038a9190611963565b60405180910390f35b34801561039f57600080fd5b506103ba60048036038101906103b59190611927565b610f7e565b6040516103c79190611e3b565b60405180910390f35b3480156103dc57600080fd5b506103f760048036038101906103f29190611dfb565b610f9e565b6040516104049190611963565b60405180910390f35b34801561041957600080fd5b50610434600480360381019061042f9190611e56565b610ff9565b005b34801561044257600080fd5b5061045d60048036038101906104589190611927565b611195565b005b34801561046b57600080fd5b5061048660048036038101906104819190611d3c565b611275565b6040516104939190611963565b60405180910390f35b3480156104a857600080fd5b506104c360048036038101906104be9190611927565b61128d565b6040516104d09190611963565b60405180910390f35b3480156104e557600080fd5b5061050060048036038101906104fb9190611d3c565b6112b2565b60405161050d9190611963565b60405180910390f35b34801561052257600080fd5b5061053d60048036038101906105389190611dfb565b6112ca565b60405161054a9190611e3b565b60405180910390f35b34801561055f57600080fd5b5061057a60048036038101906105759190611d69565b611386565b005b34801561058857600080fd5b506105a3600480360381019061059e9190611dfb565b611663565b005b3480156105b157600080fd5b506105cc60048036038101906105c79190611d69565b6117d6565b6040516105d99190611de0565b60405180910390f35b3480156105ee57600080fd5b5061060960048036038101906106049190611d69565b611824565b6040516106169190611f41565b60405180910390f35b600060036000838152602001908152602001600020805490509050919050565b600260205280600052604060002060009150905080600001805461066290611f92565b80601f016020809104026020016040519081016040528092919081815260200182805461068e90611f92565b80156106db5780601f106106b0576101008083540402835291602001916106db565b820191906000526020600020905b8154815290600101906020018083116106be57829003601f168201915b5050505050908060010154908060020180546106f690611f92565b80601f016020809104026020016040519081016040528092919081815260200182805461072290611f92565b801561076f5780601f106107445761010080835404028352916020019161076f565b820191906000526020600020905b81548152906001019060200180831161075257829003601f168201915b50505050509080600301805461078490611f92565b80601f01602080910402602001604051908101604052809291908181526020018280546107b090611f92565b80156107fd5780601f106107d2576101008083540402835291602001916107fd565b820191906000526020600020905b8154815290600101906020018083116107e057829003601f168201915b50505050509080600401805461081290611f92565b80601f016020809104026020016040519081016040528092919081815260200182805461083e90611f92565b801561088b5780601f106108605761010080835404028352916020019161088b565b820191906000526020600020905b81548152906001019060200180831161086e57829003601f168201915b5050505050908060050160009054906101000a900473ffffffffffffffffffffffffffffffffffffffff16908060050160149054906101000a900460ff16908060060154908060070154905089565b60006002600083815260200190815260200160002090508060050160149054906101000a900460ff1615610943576040517f08c379a000000000000000000000000000000000000000000000000000000000815260040161093a9061200f565b60405180910390fd5b6001600083815260200190815260200160002060009054906101000a900460ff166109a3576040517f08c379a000000000000000000000000000000000000000000000000000000000815260040161099a9061207b565b60405180910390fd5b8060050160009054906101000a900473ffffffffffffffffffffffffffffffffffffffff1673ffffffffffffffffffffffffffffffffffffffff163373ffffffffffffffffffffffffffffffffffffffff1614610a35576040517f08c379a0000000000000000000000000000000000000000000000000000000008152600401610a2c9061210d565b60405180910390fd5b6000816007015490506000826007018190555060003373ffffffffffffffffffffffffffffffffffffffff1682604051610a6e9061215e565b60006040518083038185875af1925050503d8060008114610aab576040519150601f19603f3d011682016040523d82523d6000602084013e610ab0565b606091505b5050905080610af4576040517f08c379a0000000000000000000000000000000000000000000000000000000008152600401610aeb906121bf565b60405180910390fd5b50505050565b60006002600084815260200190815260200160002090508060050160149054906101000a900460ff16610b62576040517f08c379a0000000000000000000000000000000000000000000000000000000008152600401610b599061222b565b60405180910390fd5b8060050160009054906101000a900473ffffffffffffffffffffffffffffffffffffffff1673ffffffffffffffffffffffffffffffffffffffff163373ffffffffffffffffffffffffffffffffffffffff1614610bf4576040517f08c379a0000000000000000000000000000000000000000000000000000000008152600401610beb906122bd565b60405180910390fd5b6008600084815260200190815260200160002082908060018154018082558091505060019003906000526020600020016000909190919091509081610c399190612489565b50505050565b60006002600084815260200190815260200160002090508060050160149054906101000a900460ff16610ca7576040517f08c379a0000000000000000000000000000000000000000000000000000000008152600401610c9e9061222b565b60405180910390fd5b34816007016000828254610cbb919061258a565b925050819055506003600084815260200190815260200160002060405180606001604052803373ffffffffffffffffffffffffffffffffffffffff16815260200134815260200142815250908060018154018082558091505060019003906000526020600020906003020160009091909190915060008201518160000160006101000a81548173ffffffffffffffffffffffffffffffffffffffff021916908373ffffffffffffffffffffffffffffffffffffffff160217905550602082015181600101556040820151816002015550508115610e075760056000848152602001908152602001600020339080600181540180825580915050600190039060005260206000200160009091909190916101000a81548173ffffffffffffffffffffffffffffffffffffffff021916908373ffffffffffffffffffffffffffffffffffffffff1602179055505b505050565b6000600a60008373ffffffffffffffffffffffffffffffffffffffff1673ffffffffffffffffffffffffffffffffffffffff168152602001908152602001600020549050919050565b60005481565b60036020528160005260406000208181548110610e7757600080fd5b9060005260206000209060030201600091509150508060000160009054906101000a900473ffffffffffffffffffffffffffffffffffffffff16908060010154908060020154905083565b6000600960008373ffffffffffffffffffffffffffffffffffffffff1673ffffffffffffffffffffffffffffffffffffffff168152602001908152602001600020549050919050565b60056020528160005260406000208181548110610f2757600080fd5b906000526020600020016000915091509054906101000a900473ffffffffffffffffffffffffffffffffffffffff1681565b6007602052816000526040600020602052806000526040600020600091509150505481565b60016020528060005260406000206000915054906101000a900460ff1681565b60006007600084815260200190815260200160002060008373ffffffffffffffffffffffffffffffffffffffff1673ffffffffffffffffffffffffffffffffffffffff16815260200190815260200160002054905092915050565b60008081548092919061100b906125be565b919050555060405180610120016040528086815260200160005481526020018581526020018481526020018381526020013373ffffffffffffffffffffffffffffffffffffffff1681526020016001151581526020018281526020016000815250600260008054815260200190815260200160002060008201518160000190816110959190612489565b506020820151816001015560408201518160020190816110b59190612489565b5060608201518160030190816110cb9190612489565b5060808201518160040190816110e19190612489565b5060a08201518160050160006101000a81548173ffffffffffffffffffffffffffffffffffffffff021916908373ffffffffffffffffffffffffffffffffffffffff16021790555060c08201518160050160146101000a81548160ff02191690831515021790555060e0820151816006015561010082015181600701559050506000600160008054815260200190815260200160002060006101000a81548160ff0219169083151502179055505050505050565b60006002600083815260200190815260200160002090508060050160149054906101000a900460ff166111fd576040517f08c379a00000000000000000000000000000000000000000000000000000000081526004016111f49061222b565b60405180910390fd5b60056000838152602001908152602001600020339080600181540180825580915050600190039060005260206000200160009091909190916101000a81548173ffffffffffffffffffffffffffffffffffffffff021916908373ffffffffffffffffffffffffffffffffffffffff1602179055505050565b600a6020528060005260406000206000915090505481565b6000806002600084815260200190815260200160002090508060070154915050919050565b60096020528060005260406000206000915090505481565b60008060066000858152602001908152602001600020905060005b8180549050811015611379578373ffffffffffffffffffffffffffffffffffffffff1682828154811061131b5761131a612606565b5b9060005260206000200160009054906101000a900473ffffffffffffffffffffffffffffffffffffffff1673ffffffffffffffffffffffffffffffffffffffff160361136c57600192505050611380565b80806001019150506112e5565b5060009150505b92915050565b60006002600084815260200190815260200160002090508060050160149054906101000a900460ff166113ee576040517f08c379a00000000000000000000000000000000000000000000000000000000081526004016113e59061222b565b60405180910390fd5b8060050160009054906101000a900473ffffffffffffffffffffffffffffffffffffffff1673ffffffffffffffffffffffffffffffffffffffff163373ffffffffffffffffffffffffffffffffffffffff1614611480576040517f08c379a0000000000000000000000000000000000000000000000000000000008152600401611477906126a7565b60405180910390fd5b60008160050160146101000a81548160ff021916908315150217905550600180600085815260200190815260200160002060006101000a81548160ff02191690831515021790555060005b600660008581526020019081526020016000208054905081101561165d5760006006600086815260200190815260200160002082815481106115105761150f612606565b5b9060005260206000200160009054906101000a900473ffffffffffffffffffffffffffffffffffffffff169050836007600087815260200190815260200160002060008373ffffffffffffffffffffffffffffffffffffffff1673ffffffffffffffffffffffffffffffffffffffff168152602001908152602001600020600082825461159d919061258a565b9250508190555083600960008373ffffffffffffffffffffffffffffffffffffffff1673ffffffffffffffffffffffffffffffffffffffff16815260200190815260200160002060008282546115f3919061258a565b92505081905550600a60008273ffffffffffffffffffffffffffffffffffffffff1673ffffffffffffffffffffffffffffffffffffffff168152602001908152602001600020600081548092919061164a906125be565b91905055505080806001019150506114cb565b50505050565b60006002600084815260200190815260200160002090508060050160149054906101000a900460ff166116cb576040517f08c379a00000000000000000000000000000000000000000000000000000000081526004016116c29061222b565b60405180910390fd5b8060050160009054906101000a900473ffffffffffffffffffffffffffffffffffffffff1673ffffffffffffffffffffffffffffffffffffffff163373ffffffffffffffffffffffffffffffffffffffff161461175d576040517f08c379a000000000000000000000000000000000000000000000000000000000815260040161175490612739565b60405180910390fd5b60066000848152602001908152602001600020829080600181540180825580915050600190039060005260206000200160009091909190916101000a81548173ffffffffffffffffffffffffffffffffffffffff021916908373ffffffffffffffffffffffffffffffffffffffff160217905550505050565b600660205281600052604060002081815481106117f257600080fd5b906000526020600020016000915091509054906101000a900473ffffffffffffffffffffffffffffffffffffffff1681565b6008602052816000526040600020818154811061184057600080fd5b9060005260206000200160009150915050805461185c90611f92565b80601f016020809104026020016040519081016040528092919081815260200182805461188890611f92565b80156118d55780601f106118aa576101008083540402835291602001916118d5565b820191906000526020600020905b8154815290600101906020018083116118b857829003601f168201915b505050505081565b6000604051905090565b600080fd5b600080fd5b6000819050919050565b611904816118f1565b811461190f57600080fd5b50565b600081359050611921816118fb565b92915050565b60006020828403121561193d5761193c6118e7565b5b600061194b84828501611912565b91505092915050565b61195d816118f1565b82525050565b60006020820190506119786000830184611954565b92915050565b600081519050919050565b600082825260208201905092915050565b60005b838110156119b857808201518184015260208101905061199d565b60008484015250505050565b6000601f19601f8301169050919050565b60006119e08261197e565b6119ea8185611989565b93506119fa81856020860161199a565b611a03816119c4565b840191505092915050565b600073ffffffffffffffffffffffffffffffffffffffff82169050919050565b6000611a3982611a0e565b9050919050565b611a4981611a2e565b82525050565b60008115159050919050565b611a6481611a4f565b82525050565b6000610120820190508181036000830152611a85818c6119d5565b9050611a94602083018b611954565b8181036040830152611aa6818a6119d5565b90508181036060830152611aba81896119d5565b90508181036080830152611ace81886119d5565b9050611add60a0830187611a40565b611aea60c0830186611a5b565b611af760e0830185611954565b611b05610100830184611954565b9a9950505050505050505050565b600080fd5b600080fd5b7f4e487b7100000000000000000000000000000000000000000000000000000000600052604160045260246000fd5b611b55826119c4565b810181811067ffffffffffffffff82111715611b7457611b73611b1d565b5b80604052505050565b6000611b876118dd565b9050611b938282611b4c565b919050565b600067ffffffffffffffff821115611bb357611bb2611b1d565b5b611bbc826119c4565b9050602081019050919050565b82818337600083830152505050565b6000611beb611be684611b98565b611b7d565b905082815260208101848484011115611c0757611c06611b18565b5b611c12848285611bc9565b509392505050565b600082601f830112611c2f57611c2e611b13565b5b8135611c3f848260208601611bd8565b91505092915050565b60008060408385031215611c5f57611c5e6118e7565b5b6000611c6d85828601611912565b925050602083013567ffffffffffffffff811115611c8e57611c8d6118ec565b5b611c9a85828601611c1a565b9150509250929050565b611cad81611a4f565b8114611cb857600080fd5b50565b600081359050611cca81611ca4565b92915050565b60008060408385031215611ce757611ce66118e7565b5b6000611cf585828601611912565b9250506020611d0685828601611cbb565b9150509250929050565b611d1981611a2e565b8114611d2457600080fd5b50565b600081359050611d3681611d10565b92915050565b600060208284031215611d5257611d516118e7565b5b6000611d6084828501611d27565b91505092915050565b60008060408385031215611d8057611d7f6118e7565b5b6000611d8e85828601611912565b9250506020611d9f85828601611912565b9150509250929050565b6000606082019050611dbe6000830186611a40565b611dcb6020830185611954565b611dd86040830184611954565b949350505050565b6000602082019050611df56000830184611a40565b92915050565b60008060408385031215611e1257611e116118e7565b5b6000611e2085828601611912565b9250506020611e3185828601611d27565b9150509250929050565b6000602082019050611e506000830184611a5b565b92915050565b600080600080600060a08688031215611e7257611e716118e7565b5b600086013567ffffffffffffffff811115611e9057611e8f6118ec565b5b611e9c88828901611c1a565b955050602086013567ffffffffffffffff811115611ebd57611ebc6118ec565b5b611ec988828901611c1a565b945050604086013567ffffffffffffffff811115611eea57611ee96118ec565b5b611ef688828901611c1a565b935050606086013567ffffffffffffffff811115611f1757611f166118ec565b5b611f2388828901611c1a565b9250506080611f3488828901611912565b9150509295509295909350565b60006020820190508181036000830152611f5b81846119d5565b905092915050565b7f4e487b7100000000000000000000000000000000000000000000000000000000600052602260045260246000fd5b60006002820490506001821680611faa57607f821691505b602082108103611fbd57611fbc611f63565b5b50919050565b7f50726f6a656374206973207374696c6c20616374697665000000000000000000600082015250565b6000611ff9601783611989565b915061200482611fc3565b602082019050919050565b6000602082019050818103600083015261202881611fec565b9050919050565b7f50726f6a656374206973206e6f7420636f6d706c657465642079657400000000600082015250565b6000612065601c83611989565b91506120708261202f565b602082019050919050565b6000602082019050818103600083015261209481612058565b9050919050565b7f4f6e6c79207468652070726f6a6563742063726561746f722063616e2077697460008201527f68647261772066756e6473000000000000000000000000000000000000000000602082015250565b60006120f7602b83611989565b91506121028261209b565b604082019050919050565b60006020820190508181036000830152612126816120ea565b9050919050565b600081905092915050565b50565b600061214860008361212d565b915061215382612138565b600082019050919050565b60006121698261213b565b9150819050919050565b7f5472616e73666572206661696c65642e00000000000000000000000000000000600082015250565b60006121a9601083611989565b91506121b482612173565b602082019050919050565b600060208201905081810360008301526121d88161219c565b9050919050565b7f50726f6a656374206973206e6f74206163746976650000000000000000000000600082015250565b6000612215601583611989565b9150612220826121df565b602082019050919050565b6000602082019050818103600083015261224481612208565b9050919050565b7f4f6e6c792063616d706169676e2063726561746f722063616e2061646420636f60008201527f6d6d656e74730000000000000000000000000000000000000000000000000000602082015250565b60006122a7602683611989565b91506122b28261224b565b604082019050919050565b600060208201905081810360008301526122d68161229a565b9050919050565b60008190508160005260206000209050919050565b60006020601f8301049050919050565b600082821b905092915050565b60006008830261233f7fffffffffffffffffffffffffffffffffffffffffffffffffffffffffffffffff82612302565b6123498683612302565b95508019841693508086168417925050509392505050565b6000819050919050565b600061238661238161237c846118f1565b612361565b6118f1565b9050919050565b6000819050919050565b6123a08361236b565b6123b46123ac8261238d565b84845461230f565b825550505050565b600090565b6123c96123bc565b6123d4818484612397565b505050565b5b818110156123f8576123ed6000826123c1565b6001810190506123da565b5050565b601f82111561243d5761240e816122dd565b612417846122f2565b81016020851015612426578190505b61243a612432856122f2565b8301826123d9565b50505b505050565b600082821c905092915050565b600061246060001984600802612442565b1980831691505092915050565b6000612479838361244f565b9150826002028217905092915050565b6124928261197e565b67ffffffffffffffff8111156124ab576124aa611b1d565b5b6124b58254611f92565b6124c08282856123fc565b600060209050601f8311600181146124f357600084156124e1578287015190505b6124eb858261246d565b865550612553565b601f198416612501866122dd565b60005b8281101561252957848901518255600182019150602085019450602081019050612504565b868310156125465784890151612542601f89168261244f565b8355505b6001600288020188555050505b505050505050565b7f4e487b7100000000000000000000000000000000000000000000000000000000600052601160045260246000fd5b6000612595826118f1565b91506125a0836118f1565b92508282019050808211156125b8576125b761255b565b5b92915050565b60006125c9826118f1565b91507fffffffffffffffffffffffffffffffffffffffffffffffffffffffffffffffff82036125fb576125fa61255b565b5b600182019050919050565b7f4e487b7100000000000000000000000000000000000000000000000000000000600052603260045260246000fd5b7f596f7520617265206e6f7420746865206f776e6572206f66207468697320636160008201527f6d706169676e0000000000000000000000000000000000000000000000000000602082015250565b6000612691602683611989565b915061269c82612635565b604082019050919050565b600060208201905081810360008301526126c081612684565b9050919050565b7f4f6e6c792063616d706169676e43726561746f722063616e206d61726b20706560008201527f6f706c6500000000000000000000000000000000000000000000000000000000602082015250565b6000612723602483611989565b915061272e826126c7565b604082019050919050565b6000602082019050818103600083015261275281612716565b905091905056fea264697066735822122084ab168e292f52f7367bc28faeac93adcc9a6be75d11bc762788294d6d72459f64736f6c63430008180033",
  "linkReferences": {},
  "deployedLinkReferences": {}
}