{
  "_format": "hh-sol-artifact-1",
  "contractName": "nftContract",
  "sourceName": "contracts/nftContract.sol",
  "abi": [
    {
      "inputs": [
        {
          "internalType": "address",
          "name": "_bioDivAndHerAddress",
          "type": "address"
        }
      ],
      "stateMutability": "nonpayable",
      "type": "constructor"
    },
    {
      "inputs": [
        {
          "internalType": "address",
          "name": "sender",
          "type": "address"
        },
        {
          "internalType": "uint256",
          "name": "tokenId",
          "type": "uint256"
        },
        {
          "internalType": "address",
          "name": "owner",
          "type": "address"
        }
      ],
      "name": "ERC721IncorrectOwner",
      "type": "error"
    },
    {
      "inputs": [
        {
          "internalType": "address",
          "name": "operator",
          "type": "address"
        },
        {
          "internalType": "uint256",
          "name": "tokenId",
          "type": "uint256"
        }
      ],
      "name": "ERC721InsufficientApproval",
      "type": "error"
    },
    {
      "inputs": [
        {
          "internalType": "address",
          "name": "approver",
          "type": "address"
        }
      ],
      "name": "ERC721InvalidApprover",
      "type": "error"
    },
    {
      "inputs": [
        {
          "internalType": "address",
          "name": "operator",
          "type": "address"
        }
      ],
      "name": "ERC721InvalidOperator",
      "type": "error"
    },
    {
      "inputs": [
        {
          "internalType": "address",
          "name": "owner",
          "type": "address"
        }
      ],
      "name": "ERC721InvalidOwner",
      "type": "error"
    },
    {
      "inputs": [
        {
          "internalType": "address",
          "name": "receiver",
          "type": "address"
        }
      ],
      "name": "ERC721InvalidReceiver",
      "type": "error"
    },
    {
      "inputs": [
        {
          "internalType": "address",
          "name": "sender",
          "type": "address"
        }
      ],
      "name": "ERC721InvalidSender",
      "type": "error"
    },
    {
      "inputs": [
        {
          "internalType": "uint256",
          "name": "tokenId",
          "type": "uint256"
        }
      ],
      "name": "ERC721NonexistentToken",
      "type": "error"
    },
    {
      "inputs": [
        {
          "internalType": "address",
          "name": "owner",
          "type": "address"
        }
      ],
      "name": "OwnableInvalidOwner",
      "type": "error"
    },
    {
      "inputs": [
        {
          "internalType": "address",
          "name": "account",
          "type": "address"
        }
      ],
      "name": "OwnableUnauthorizedAccount",
      "type": "error"
    },
    {
      "anonymous": false,
      "inputs": [
        {
          "indexed": true,
          "internalType": "address",
          "name": "owner",
          "type": "address"
        },
        {
          "indexed": true,
          "internalType": "address",
          "name": "approved",
          "type": "address"
        },
        {
          "indexed": true,
          "internalType": "uint256",
          "name": "tokenId",
          "type": "uint256"
        }
      ],
      "name": "Approval",
      "type": "event"
    },
    {
      "anonymous": false,
      "inputs": [
        {
          "indexed": true,
          "internalType": "address",
          "name": "owner",
          "type": "address"
        },
        {
          "indexed": true,
          "internalType": "address",
          "name": "operator",
          "type": "address"
        },
        {
          "indexed": false,
          "internalType": "bool",
          "name": "approved",
          "type": "bool"
        }
      ],
      "name": "ApprovalForAll",
      "type": "event"
    },
    {
      "anonymous": false,
      "inputs": [
        {
          "indexed": false,
          "internalType": "uint256",
          "name": "_fromTokenId",
          "type": "uint256"
        },
        {
          "indexed": false,
          "internalType": "uint256",
          "name": "_toTokenId",
          "type": "uint256"
        }
      ],
      "name": "BatchMetadataUpdate",
      "type": "event"
    },
    {
      "anonymous": false,
      "inputs": [
        {
          "indexed": false,
          "internalType": "uint256",
          "name": "_tokenId",
          "type": "uint256"
        }
      ],
      "name": "MetadataUpdate",
      "type": "event"
    },
    {
      "anonymous": false,
      "inputs": [
        {
          "indexed": true,
          "internalType": "address",
          "name": "previousOwner",
          "type": "address"
        },
        {
          "indexed": true,
          "internalType": "address",
          "name": "newOwner",
          "type": "address"
        }
      ],
      "name": "OwnershipTransferred",
      "type": "event"
    },
    {
      "anonymous": false,
      "inputs": [
        {
          "indexed": true,
          "internalType": "address",
          "name": "from",
          "type": "address"
        },
        {
          "indexed": true,
          "internalType": "address",
          "name": "to",
          "type": "address"
        },
        {
          "indexed": true,
          "internalType": "uint256",
          "name": "tokenId",
          "type": "uint256"
        }
      ],
      "name": "Transfer",
      "type": "event"
    },
    {
      "inputs": [
        {
          "internalType": "address",
          "name": "to",
          "type": "address"
        },
        {
          "internalType": "uint256",
          "name": "tokenId",
          "type": "uint256"
        }
      ],
      "name": "approve",
      "outputs": [],
      "stateMutability": "nonpayable",
      "type": "function"
    },
    {
      "inputs": [
        {
          "internalType": "address",
          "name": "owner",
          "type": "address"
        }
      ],
      "name": "balanceOf",
      "outputs": [
        {
          "internalType": "uint256",
          "name": "",
          "type": "uint256"
        }
      ],
      "stateMutability": "view",
      "type": "function"
    },
    {
      "inputs": [],
      "name": "bioDivAndHerContract",
      "outputs": [
        {
          "internalType": "contract IBioDivAndHer",
          "name": "",
          "type": "address"
        }
      ],
      "stateMutability": "view",
      "type": "function"
    },
    {
      "inputs": [
        {
          "internalType": "uint256",
          "name": "tokenId",
          "type": "uint256"
        }
      ],
      "name": "burn",
      "outputs": [],
      "stateMutability": "nonpayable",
      "type": "function"
    },
    {
      "inputs": [
        {
          "internalType": "uint256",
          "name": "tokenId",
          "type": "uint256"
        }
      ],
      "name": "getApproved",
      "outputs": [
        {
          "internalType": "address",
          "name": "",
          "type": "address"
        }
      ],
      "stateMutability": "view",
      "type": "function"
    },
    {
      "inputs": [
        {
          "internalType": "address",
          "name": "user",
          "type": "address"
        }
      ],
      "name": "getOwnedNFTs",
      "outputs": [
        {
          "internalType": "uint256[]",
          "name": "",
          "type": "uint256[]"
        }
      ],
      "stateMutability": "view",
      "type": "function"
    },
    {
      "inputs": [
        {
          "internalType": "address",
          "name": "owner",
          "type": "address"
        },
        {
          "internalType": "address",
          "name": "operator",
          "type": "address"
        }
      ],
      "name": "isApprovedForAll",
      "outputs": [
        {
          "internalType": "bool",
          "name": "",
          "type": "bool"
        }
      ],
      "stateMutability": "view",
      "type": "function"
    },
    {
      "inputs": [],
      "name": "name",
      "outputs": [
        {
          "internalType": "string",
          "name": "",
          "type": "string"
        }
      ],
      "stateMutability": "view",
      "type": "function"
    },
    {
      "inputs": [
        {
          "internalType": "address",
          "name": "",
          "type": "address"
        },
        {
          "internalType": "uint256",
          "name": "",
          "type": "uint256"
        }
      ],
      "name": "ownedNFTs",
      "outputs": [
        {
          "internalType": "uint256",
          "name": "",
          "type": "uint256"
        }
      ],
      "stateMutability": "view",
      "type": "function"
    },
    {
      "inputs": [],
      "name": "owner",
      "outputs": [
        {
          "internalType": "address",
          "name": "",
          "type": "address"
        }
      ],
      "stateMutability": "view",
      "type": "function"
    },
    {
      "inputs": [
        {
          "internalType": "uint256",
          "name": "tokenId",
          "type": "uint256"
        }
      ],
      "name": "ownerOf",
      "outputs": [
        {
          "internalType": "address",
          "name": "",
          "type": "address"
        }
      ],
      "stateMutability": "view",
      "type": "function"
    },
    {
      "inputs": [],
      "name": "renounceOwnership",
      "outputs": [],
      "stateMutability": "nonpayable",
      "type": "function"
    },
    {
      "inputs": [
        {
          "internalType": "address",
          "name": "to",
          "type": "address"
        },
        {
          "internalType": "string",
          "name": "uri",
          "type": "string"
        },
        {
          "internalType": "uint256",
          "name": "_projectID",
          "type": "uint256"
        }
      ],
      "name": "safeMint",
      "outputs": [],
      "stateMutability": "nonpayable",
      "type": "function"
    },
    {
      "inputs": [
        {
          "internalType": "address",
          "name": "from",
          "type": "address"
        },
        {
          "internalType": "address",
          "name": "to",
          "type": "address"
        },
        {
          "internalType": "uint256",
          "name": "tokenId",
          "type": "uint256"
        }
      ],
      "name": "safeTransferFrom",
      "outputs": [],
      "stateMutability": "nonpayable",
      "type": "function"
    },
    {
      "inputs": [
        {
          "internalType": "address",
          "name": "from",
          "type": "address"
        },
        {
          "internalType": "address",
          "name": "to",
          "type": "address"
        },
        {
          "internalType": "uint256",
          "name": "tokenId",
          "type": "uint256"
        },
        {
          "internalType": "bytes",
          "name": "data",
          "type": "bytes"
        }
      ],
      "name": "safeTransferFrom",
      "outputs": [],
      "stateMutability": "nonpayable",
      "type": "function"
    },
    {
      "inputs": [
        {
          "internalType": "address",
          "name": "operator",
          "type": "address"
        },
        {
          "internalType": "bool",
          "name": "approved",
          "type": "bool"
        }
      ],
      "name": "setApprovalForAll",
      "outputs": [],
      "stateMutability": "nonpayable",
      "type": "function"
    },
    {
      "inputs": [
        {
          "internalType": "bytes4",
          "name": "interfaceId",
          "type": "bytes4"
        }
      ],
      "name": "supportsInterface",
      "outputs": [
        {
          "internalType": "bool",
          "name": "",
          "type": "bool"
        }
      ],
      "stateMutability": "view",
      "type": "function"
    },
    {
      "inputs": [],
      "name": "symbol",
      "outputs": [
        {
          "internalType": "string",
          "name": "",
          "type": "string"
        }
      ],
      "stateMutability": "view",
      "type": "function"
    },
    {
      "inputs": [
        {
          "internalType": "uint256",
          "name": "tokenId",
          "type": "uint256"
        }
      ],
      "name": "tokenURI",
      "outputs": [
        {
          "internalType": "string",
          "name": "",
          "type": "string"
        }
      ],
      "stateMutability": "view",
      "type": "function"
    },
    {
      "inputs": [],
      "name": "totalTokenissue",
      "outputs": [
        {
          "internalType": "uint256",
          "name": "",
          "type": "uint256"
        }
      ],
      "stateMutability": "view",
      "type": "function"
    },
    {
      "inputs": [
        {
          "internalType": "address",
          "name": "from",
          "type": "address"
        },
        {
          "internalType": "address",
          "name": "to",
          "type": "address"
        },
        {
          "internalType": "uint256",
          "name": "tokenId",
          "type": "uint256"
        }
      ],
      "name": "transferFrom",
      "outputs": [],
      "stateMutability": "nonpayable",
      "type": "function"
    },
    {
      "inputs": [
        {
          "internalType": "address",
          "name": "newOwner",
          "type": "address"
        }
      ],
      "name": "transferOwnership",
      "outputs": [],
      "stateMutability": "nonpayable",
      "type": "function"
    }
  ],
  "bytecode": "0x60806040526000600a553480156200001657600080fd5b50604051620032553803806200325583398181016040528101906200003c9190620002ce565b336040518060400160405280601981526020017f62696f64697665727369747920616e64204865726974616765000000000000008152506040518060400160405280600381526020017f45434f00000000000000000000000000000000000000000000000000000000008152508160009081620000ba91906200057a565b508060019081620000cc91906200057a565b505050600073ffffffffffffffffffffffffffffffffffffffff168173ffffffffffffffffffffffffffffffffffffffff1603620001445760006040517f1e4fbdf70000000000000000000000000000000000000000000000000000000081526004016200013b919062000672565b60405180910390fd5b62000155816200019e60201b60201c565b5080600860006101000a81548173ffffffffffffffffffffffffffffffffffffffff021916908373ffffffffffffffffffffffffffffffffffffffff160217905550506200068f565b6000600760009054906101000a900473ffffffffffffffffffffffffffffffffffffffff16905081600760006101000a81548173ffffffffffffffffffffffffffffffffffffffff021916908373ffffffffffffffffffffffffffffffffffffffff1602179055508173ffffffffffffffffffffffffffffffffffffffff168173ffffffffffffffffffffffffffffffffffffffff167f8be0079c531659141344cd1fd0a4f28419497f9722a3daafe3b4186f6b6457e060405160405180910390a35050565b600080fd5b600073ffffffffffffffffffffffffffffffffffffffff82169050919050565b6000620002968262000269565b9050919050565b620002a88162000289565b8114620002b457600080fd5b50565b600081519050620002c8816200029d565b92915050565b600060208284031215620002e757620002e662000264565b5b6000620002f784828501620002b7565b91505092915050565b600081519050919050565b7f4e487b7100000000000000000000000000000000000000000000000000000000600052604160045260246000fd5b7f4e487b7100000000000000000000000000000000000000000000000000000000600052602260045260246000fd5b600060028204905060018216806200038257607f821691505b6020821081036200039857620003976200033a565b5b50919050565b60008190508160005260206000209050919050565b60006020601f8301049050919050565b600082821b905092915050565b600060088302620004027fffffffffffffffffffffffffffffffffffffffffffffffffffffffffffffffff82620003c3565b6200040e8683620003c3565b95508019841693508086168417925050509392505050565b6000819050919050565b6000819050919050565b60006200045b620004556200044f8462000426565b62000430565b62000426565b9050919050565b6000819050919050565b62000477836200043a565b6200048f620004868262000462565b848454620003d0565b825550505050565b600090565b620004a662000497565b620004b38184846200046c565b505050565b5b81811015620004db57620004cf6000826200049c565b600181019050620004b9565b5050565b601f8211156200052a57620004f4816200039e565b620004ff84620003b3565b810160208510156200050f578190505b620005276200051e85620003b3565b830182620004b8565b50505b505050565b600082821c905092915050565b60006200054f600019846008026200052f565b1980831691505092915050565b60006200056a83836200053c565b9150826002028217905092915050565b620005858262000300565b67ffffffffffffffff811115620005a157620005a06200030b565b5b620005ad825462000369565b620005ba828285620004df565b600060209050601f831160018114620005f25760008415620005dd578287015190505b620005e985826200055c565b86555062000659565b601f19841662000602866200039e565b60005b828110156200062c5784890151825560018201915060208501945060208101905062000605565b868310156200064c578489015162000648601f8916826200053c565b8355505b6001600288020188555050505b505050505050565b6200066c8162000289565b82525050565b600060208201905062000689600083018462000661565b92915050565b612bb6806200069f6000396000f3fe608060405234801561001057600080fd5b50600436106101425760003560e01c8063715018a6116100b8578063b88d4fde1161007c578063b88d4fde14610375578063c772745a14610391578063c87b56dd146103ad578063e5048b8f146103dd578063e985e9c5146103fb578063f2fde38b1461042b57610142565b8063715018a6146102f55780638da5cb5b146102ff57806395d89b411461031d578063a22cb4651461033b578063aa551da81461035757610142565b80631a72b87d1161010a5780631a72b87d1461021157806323b872dd1461024157806342842e0e1461025d57806342966c68146102795780636352211e1461029557806370a08231146102c557610142565b806301ffc9a71461014757806306fdde0314610177578063081812fc14610195578063095ea7b3146101c557806318148f1b146101e1575b600080fd5b610161600480360381019061015c9190611dae565b610447565b60405161016e9190611df6565b60405180910390f35b61017f610459565b60405161018c9190611ea1565b60405180910390f35b6101af60048036038101906101aa9190611ef9565b6104eb565b6040516101bc9190611f67565b60405180910390f35b6101df60048036038101906101da9190611fae565b610507565b005b6101fb60048036038101906101f69190611fee565b61051d565b60405161020891906120d9565b60405180910390f35b61022b60048036038101906102269190611fae565b6105b4565b604051610238919061210a565b60405180910390f35b61025b60048036038101906102569190612125565b6105e5565b005b61027760048036038101906102729190612125565b6106e7565b005b610293600480360381019061028e9190611ef9565b610707565b005b6102af60048036038101906102aa9190611ef9565b61071e565b6040516102bc9190611f67565b60405180910390f35b6102df60048036038101906102da9190611fee565b610730565b6040516102ec919061210a565b60405180910390f35b6102fd6107ea565b005b6103076107fe565b6040516103149190611f67565b60405180910390f35b610325610828565b6040516103329190611ea1565b60405180910390f35b610355600480360381019061035091906121a4565b6108ba565b005b61035f6108d0565b60405161036c919061210a565b60405180910390f35b61038f600480360381019061038a9190612319565b6108d6565b005b6103ab60048036038101906103a6919061243d565b6108f3565b005b6103c760048036038101906103c29190611ef9565b610a0d565b6040516103d49190611ea1565b60405180910390f35b6103e5610a1f565b6040516103f2919061250b565b60405180910390f35b61041560048036038101906104109190612526565b610a45565b6040516104229190611df6565b60405180910390f35b61044560048036038101906104409190611fee565b610ad9565b005b600061045282610b5f565b9050919050565b60606000805461046890612595565b80601f016020809104026020016040519081016040528092919081815260200182805461049490612595565b80156104e15780601f106104b6576101008083540402835291602001916104e1565b820191906000526020600020905b8154815290600101906020018083116104c457829003601f168201915b5050505050905090565b60006104f682610bc0565b5061050082610c48565b9050919050565b6105198282610514610c85565b610c8d565b5050565b6060600960008373ffffffffffffffffffffffffffffffffffffffff1673ffffffffffffffffffffffffffffffffffffffff1681526020019081526020016000208054806020026020016040519081016040528092919081815260200182805480156105a857602002820191906000526020600020905b815481526020019060010190808311610594575b50505050509050919050565b600960205281600052604060002081815481106105d057600080fd5b90600052602060002001600091509150505481565b600073ffffffffffffffffffffffffffffffffffffffff168273ffffffffffffffffffffffffffffffffffffffff16036106575760006040517f64a0ae9200000000000000000000000000000000000000000000000000000000815260040161064e9190611f67565b60405180910390fd5b600061066b8383610666610c85565b610c9f565b90508373ffffffffffffffffffffffffffffffffffffffff168173ffffffffffffffffffffffffffffffffffffffff16146106e1578382826040517f64283d7b0000000000000000000000000000000000000000000000000000000081526004016106d8939291906125c6565b60405180910390fd5b50505050565b610702838383604051806020016040528060008152506108d6565b505050565b61071a600082610715610c85565b610c9f565b5050565b600061072982610bc0565b9050919050565b60008073ffffffffffffffffffffffffffffffffffffffff168273ffffffffffffffffffffffffffffffffffffffff16036107a35760006040517f89c62b6400000000000000000000000000000000000000000000000000000000815260040161079a9190611f67565b60405180910390fd5b600360008373ffffffffffffffffffffffffffffffffffffffff1673ffffffffffffffffffffffffffffffffffffffff168152602001908152602001600020549050919050565b6107f2610eb9565b6107fc6000610f40565b565b6000600760009054906101000a900473ffffffffffffffffffffffffffffffffffffffff16905090565b60606001805461083790612595565b80601f016020809104026020016040519081016040528092919081815260200182805461086390612595565b80156108b05780601f10610885576101008083540402835291602001916108b0565b820191906000526020600020905b81548152906001019060200180831161089357829003601f168201915b5050505050905090565b6108cc6108c5610c85565b8383611006565b5050565b600a5481565b6108e18484846105e5565b6108ed84848484611175565b50505050565b6108fb610eb9565b600860009054906101000a900473ffffffffffffffffffffffffffffffffffffffff1673ffffffffffffffffffffffffffffffffffffffff1663cf01c35682856040518363ffffffff1660e01b81526004016109589291906125fd565b602060405180830381865afa158015610975573d6000803e3d6000fd5b505050506040513d601f19601f82011682018060405250810190610999919061263b565b6109d8576040517f08c379a00000000000000000000000000000000000000000000000000000000081526004016109cf906126da565b60405180910390fd5b600a60008154809291906109eb90612729565b91905055506109fc83600a5461132c565b610a08600a548361134a565b505050565b6060610a18826113a6565b9050919050565b600860009054906101000a900473ffffffffffffffffffffffffffffffffffffffff1681565b6000600560008473ffffffffffffffffffffffffffffffffffffffff1673ffffffffffffffffffffffffffffffffffffffff16815260200190815260200160002060008373ffffffffffffffffffffffffffffffffffffffff1673ffffffffffffffffffffffffffffffffffffffff16815260200190815260200160002060009054906101000a900460ff16905092915050565b610ae1610eb9565b600073ffffffffffffffffffffffffffffffffffffffff168173ffffffffffffffffffffffffffffffffffffffff1603610b535760006040517f1e4fbdf7000000000000000000000000000000000000000000000000000000008152600401610b4a9190611f67565b60405180910390fd5b610b5c81610f40565b50565b6000634906490660e01b7bffffffffffffffffffffffffffffffffffffffffffffffffffffffff1916827bffffffffffffffffffffffffffffffffffffffffffffffffffffffff19161480610bb95750610bb8826114b9565b5b9050919050565b600080610bcc8361159b565b9050600073ffffffffffffffffffffffffffffffffffffffff168173ffffffffffffffffffffffffffffffffffffffff1603610c3f57826040517f7e273289000000000000000000000000000000000000000000000000000000008152600401610c36919061210a565b60405180910390fd5b80915050919050565b60006004600083815260200190815260200160002060009054906101000a900473ffffffffffffffffffffffffffffffffffffffff169050919050565b600033905090565b610c9a83838360016115d8565b505050565b600080610cab8461159b565b9050600073ffffffffffffffffffffffffffffffffffffffff168373ffffffffffffffffffffffffffffffffffffffff1614610ced57610cec81848661179d565b5b600073ffffffffffffffffffffffffffffffffffffffff168173ffffffffffffffffffffffffffffffffffffffff1614610d7e57610d2f6000856000806115d8565b6001600360008373ffffffffffffffffffffffffffffffffffffffff1673ffffffffffffffffffffffffffffffffffffffff168152602001908152602001600020600082825403925050819055505b600073ffffffffffffffffffffffffffffffffffffffff168573ffffffffffffffffffffffffffffffffffffffff1614610e01576001600360008773ffffffffffffffffffffffffffffffffffffffff1673ffffffffffffffffffffffffffffffffffffffff168152602001908152602001600020600082825401925050819055505b846002600086815260200190815260200160002060006101000a81548173ffffffffffffffffffffffffffffffffffffffff021916908373ffffffffffffffffffffffffffffffffffffffff160217905550838573ffffffffffffffffffffffffffffffffffffffff168273ffffffffffffffffffffffffffffffffffffffff167fddf252ad1be2c89b69c2b068fc378daa952ba7f163c4a11628f55a4df523b3ef60405160405180910390a4809150509392505050565b610ec1610c85565b73ffffffffffffffffffffffffffffffffffffffff16610edf6107fe565b73ffffffffffffffffffffffffffffffffffffffff1614610f3e57610f02610c85565b6040517f118cdaa7000000000000000000000000000000000000000000000000000000008152600401610f359190611f67565b60405180910390fd5b565b6000600760009054906101000a900473ffffffffffffffffffffffffffffffffffffffff16905081600760006101000a81548173ffffffffffffffffffffffffffffffffffffffff021916908373ffffffffffffffffffffffffffffffffffffffff1602179055508173ffffffffffffffffffffffffffffffffffffffff168173ffffffffffffffffffffffffffffffffffffffff167f8be0079c531659141344cd1fd0a4f28419497f9722a3daafe3b4186f6b6457e060405160405180910390a35050565b600073ffffffffffffffffffffffffffffffffffffffff168273ffffffffffffffffffffffffffffffffffffffff160361107757816040517f5b08ba1800000000000000000000000000000000000000000000000000000000815260040161106e9190611f67565b60405180910390fd5b80600560008573ffffffffffffffffffffffffffffffffffffffff1673ffffffffffffffffffffffffffffffffffffffff16815260200190815260200160002060008473ffffffffffffffffffffffffffffffffffffffff1673ffffffffffffffffffffffffffffffffffffffff16815260200190815260200160002060006101000a81548160ff0219169083151502179055508173ffffffffffffffffffffffffffffffffffffffff168373ffffffffffffffffffffffffffffffffffffffff167f17307eab39ab6107e8899845ad3d59bd9653f200f220920489ca2b5937696c31836040516111689190611df6565b60405180910390a3505050565b60008373ffffffffffffffffffffffffffffffffffffffff163b1115611326578273ffffffffffffffffffffffffffffffffffffffff1663150b7a026111b9610c85565b8685856040518563ffffffff1660e01b81526004016111db94939291906127c6565b6020604051808303816000875af192505050801561121757506040513d601f19601f820116820180604052508101906112149190612827565b60015b61129b573d8060008114611247576040519150601f19603f3d011682016040523d82523d6000602084013e61124c565b606091505b50600081510361129357836040517f64a0ae9200000000000000000000000000000000000000000000000000000000815260040161128a9190611f67565b60405180910390fd5b805181602001fd5b63150b7a0260e01b7bffffffffffffffffffffffffffffffffffffffffffffffffffffffff1916817bffffffffffffffffffffffffffffffffffffffffffffffffffffffff19161461132457836040517f64a0ae9200000000000000000000000000000000000000000000000000000000815260040161131b9190611f67565b60405180910390fd5b505b50505050565b611346828260405180602001604052806000815250611861565b5050565b8060066000848152602001908152602001600020908161136a91906129f6565b507ff8e1a15aba9398e019f0b49df1a4fde98ee17ae345cb5f6b5e2c27f5033e8ce78260405161139a919061210a565b60405180910390a15050565b60606113b182610bc0565b5060006006600084815260200190815260200160002080546113d290612595565b80601f01602080910402602001604051908101604052809291908181526020018280546113fe90612595565b801561144b5780601f106114205761010080835404028352916020019161144b565b820191906000526020600020905b81548152906001019060200180831161142e57829003601f168201915b50505050509050600061145c61187d565b905060008151036114715781925050506114b4565b6000825111156114a657808260405160200161148e929190612b04565b604051602081830303815290604052925050506114b4565b6114af84611894565b925050505b919050565b60007f80ac58cd000000000000000000000000000000000000000000000000000000007bffffffffffffffffffffffffffffffffffffffffffffffffffffffff1916827bffffffffffffffffffffffffffffffffffffffffffffffffffffffff1916148061158457507f5b5e139f000000000000000000000000000000000000000000000000000000007bffffffffffffffffffffffffffffffffffffffffffffffffffffffff1916827bffffffffffffffffffffffffffffffffffffffffffffffffffffffff1916145b806115945750611593826118fd565b5b9050919050565b60006002600083815260200190815260200160002060009054906101000a900473ffffffffffffffffffffffffffffffffffffffff169050919050565b80806116115750600073ffffffffffffffffffffffffffffffffffffffff168273ffffffffffffffffffffffffffffffffffffffff1614155b1561174557600061162184610bc0565b9050600073ffffffffffffffffffffffffffffffffffffffff168373ffffffffffffffffffffffffffffffffffffffff161415801561168c57508273ffffffffffffffffffffffffffffffffffffffff168173ffffffffffffffffffffffffffffffffffffffff1614155b801561169f575061169d8184610a45565b155b156116e157826040517fa9fbf51f0000000000000000000000000000000000000000000000000000000081526004016116d89190611f67565b60405180910390fd5b811561174357838573ffffffffffffffffffffffffffffffffffffffff168273ffffffffffffffffffffffffffffffffffffffff167f8c5be1e5ebec7d5bd14f71427d1e84f3dd0314c0f7b2291e5b200ac8c7c3b92560405160405180910390a45b505b836004600085815260200190815260200160002060006101000a81548173ffffffffffffffffffffffffffffffffffffffff021916908373ffffffffffffffffffffffffffffffffffffffff16021790555050505050565b6117a8838383611967565b61185c57600073ffffffffffffffffffffffffffffffffffffffff168373ffffffffffffffffffffffffffffffffffffffff160361181d57806040517f7e273289000000000000000000000000000000000000000000000000000000008152600401611814919061210a565b60405180910390fd5b81816040517f177e802f000000000000000000000000000000000000000000000000000000008152600401611853929190612b28565b60405180910390fd5b505050565b61186b8383611a28565b6118786000848484611175565b505050565b606060405180602001604052806000815250905090565b606061189f82610bc0565b5060006118aa61187d565b905060008151116118ca57604051806020016040528060008152506118f5565b806118d484611b21565b6040516020016118e5929190612b04565b6040516020818303038152906040525b915050919050565b60007f01ffc9a7000000000000000000000000000000000000000000000000000000007bffffffffffffffffffffffffffffffffffffffffffffffffffffffff1916827bffffffffffffffffffffffffffffffffffffffffffffffffffffffff1916149050919050565b60008073ffffffffffffffffffffffffffffffffffffffff168373ffffffffffffffffffffffffffffffffffffffff1614158015611a1f57508273ffffffffffffffffffffffffffffffffffffffff168473ffffffffffffffffffffffffffffffffffffffff1614806119e057506119df8484610a45565b5b80611a1e57508273ffffffffffffffffffffffffffffffffffffffff16611a0683610c48565b73ffffffffffffffffffffffffffffffffffffffff16145b5b90509392505050565b600073ffffffffffffffffffffffffffffffffffffffff168273ffffffffffffffffffffffffffffffffffffffff1603611a9a5760006040517f64a0ae92000000000000000000000000000000000000000000000000000000008152600401611a919190611f67565b60405180910390fd5b6000611aa883836000610c9f565b9050600073ffffffffffffffffffffffffffffffffffffffff168173ffffffffffffffffffffffffffffffffffffffff1614611b1c5760006040517f73c6ac6e000000000000000000000000000000000000000000000000000000008152600401611b139190611f67565b60405180910390fd5b505050565b606060006001611b3084611bef565b01905060008167ffffffffffffffff811115611b4f57611b4e6121ee565b5b6040519080825280601f01601f191660200182016040528015611b815781602001600182028036833780820191505090505b509050600082602001820190505b600115611be4578080600190039150507f3031323334353637383961626364656600000000000000000000000000000000600a86061a8153600a8581611bd857611bd7612b51565b5b04945060008503611b8f575b819350505050919050565b600080600090507a184f03e93ff9f4daa797ed6e38ed64bf6a1f0100000000000000008310611c4d577a184f03e93ff9f4daa797ed6e38ed64bf6a1f0100000000000000008381611c4357611c42612b51565b5b0492506040810190505b6d04ee2d6d415b85acef81000000008310611c8a576d04ee2d6d415b85acef81000000008381611c8057611c7f612b51565b5b0492506020810190505b662386f26fc100008310611cb957662386f26fc100008381611caf57611cae612b51565b5b0492506010810190505b6305f5e1008310611ce2576305f5e1008381611cd857611cd7612b51565b5b0492506008810190505b6127108310611d07576127108381611cfd57611cfc612b51565b5b0492506004810190505b60648310611d2a5760648381611d2057611d1f612b51565b5b0492506002810190505b600a8310611d39576001810190505b80915050919050565b6000604051905090565b600080fd5b600080fd5b60007fffffffff0000000000000000000000000000000000000000000000000000000082169050919050565b611d8b81611d56565b8114611d9657600080fd5b50565b600081359050611da881611d82565b92915050565b600060208284031215611dc457611dc3611d4c565b5b6000611dd284828501611d99565b91505092915050565b60008115159050919050565b611df081611ddb565b82525050565b6000602082019050611e0b6000830184611de7565b92915050565b600081519050919050565b600082825260208201905092915050565b60005b83811015611e4b578082015181840152602081019050611e30565b60008484015250505050565b6000601f19601f8301169050919050565b6000611e7382611e11565b611e7d8185611e1c565b9350611e8d818560208601611e2d565b611e9681611e57565b840191505092915050565b60006020820190508181036000830152611ebb8184611e68565b905092915050565b6000819050919050565b611ed681611ec3565b8114611ee157600080fd5b50565b600081359050611ef381611ecd565b92915050565b600060208284031215611f0f57611f0e611d4c565b5b6000611f1d84828501611ee4565b91505092915050565b600073ffffffffffffffffffffffffffffffffffffffff82169050919050565b6000611f5182611f26565b9050919050565b611f6181611f46565b82525050565b6000602082019050611f7c6000830184611f58565b92915050565b611f8b81611f46565b8114611f9657600080fd5b50565b600081359050611fa881611f82565b92915050565b60008060408385031215611fc557611fc4611d4c565b5b6000611fd385828601611f99565b9250506020611fe485828601611ee4565b9150509250929050565b60006020828403121561200457612003611d4c565b5b600061201284828501611f99565b91505092915050565b600081519050919050565b600082825260208201905092915050565b6000819050602082019050919050565b61205081611ec3565b82525050565b60006120628383612047565b60208301905092915050565b6000602082019050919050565b60006120868261201b565b6120908185612026565b935061209b83612037565b8060005b838110156120cc5781516120b38882612056565b97506120be8361206e565b92505060018101905061209f565b5085935050505092915050565b600060208201905081810360008301526120f3818461207b565b905092915050565b61210481611ec3565b82525050565b600060208201905061211f60008301846120fb565b92915050565b60008060006060848603121561213e5761213d611d4c565b5b600061214c86828701611f99565b935050602061215d86828701611f99565b925050604061216e86828701611ee4565b9150509250925092565b61218181611ddb565b811461218c57600080fd5b50565b60008135905061219e81612178565b92915050565b600080604083850312156121bb576121ba611d4c565b5b60006121c985828601611f99565b92505060206121da8582860161218f565b9150509250929050565b600080fd5b600080fd5b7f4e487b7100000000000000000000000000000000000000000000000000000000600052604160045260246000fd5b61222682611e57565b810181811067ffffffffffffffff82111715612245576122446121ee565b5b80604052505050565b6000612258611d42565b9050612264828261221d565b919050565b600067ffffffffffffffff821115612284576122836121ee565b5b61228d82611e57565b9050602081019050919050565b82818337600083830152505050565b60006122bc6122b784612269565b61224e565b9050828152602081018484840111156122d8576122d76121e9565b5b6122e384828561229a565b509392505050565b600082601f830112612300576122ff6121e4565b5b81356123108482602086016122a9565b91505092915050565b6000806000806080858703121561233357612332611d4c565b5b600061234187828801611f99565b945050602061235287828801611f99565b935050604061236387828801611ee4565b925050606085013567ffffffffffffffff81111561238457612383611d51565b5b612390878288016122eb565b91505092959194509250565b600067ffffffffffffffff8211156123b7576123b66121ee565b5b6123c082611e57565b9050602081019050919050565b60006123e06123db8461239c565b61224e565b9050828152602081018484840111156123fc576123fb6121e9565b5b61240784828561229a565b509392505050565b600082601f830112612424576124236121e4565b5b81356124348482602086016123cd565b91505092915050565b60008060006060848603121561245657612455611d4c565b5b600061246486828701611f99565b935050602084013567ffffffffffffffff81111561248557612484611d51565b5b6124918682870161240f565b92505060406124a286828701611ee4565b9150509250925092565b6000819050919050565b60006124d16124cc6124c784611f26565b6124ac565b611f26565b9050919050565b60006124e3826124b6565b9050919050565b60006124f5826124d8565b9050919050565b612505816124ea565b82525050565b600060208201905061252060008301846124fc565b92915050565b6000806040838503121561253d5761253c611d4c565b5b600061254b85828601611f99565b925050602061255c85828601611f99565b9150509250929050565b7f4e487b7100000000000000000000000000000000000000000000000000000000600052602260045260246000fd5b600060028204905060018216806125ad57607f821691505b6020821081036125c0576125bf612566565b5b50919050565b60006060820190506125db6000830186611f58565b6125e860208301856120fb565b6125f56040830184611f58565b949350505050565b600060408201905061261260008301856120fb565b61261f6020830184611f58565b9392505050565b60008151905061263581612178565b92915050565b60006020828403121561265157612650611d4c565b5b600061265f84828501612626565b91505092915050565b7f55736572206973206e6f742061207061727469636970616e74206f662074686560008201527f2070726f6a656374000000000000000000000000000000000000000000000000602082015250565b60006126c4602883611e1c565b91506126cf82612668565b604082019050919050565b600060208201905081810360008301526126f3816126b7565b9050919050565b7f4e487b7100000000000000000000000000000000000000000000000000000000600052601160045260246000fd5b600061273482611ec3565b91507fffffffffffffffffffffffffffffffffffffffffffffffffffffffffffffffff8203612766576127656126fa565b5b600182019050919050565b600081519050919050565b600082825260208201905092915050565b600061279882612771565b6127a2818561277c565b93506127b2818560208601611e2d565b6127bb81611e57565b840191505092915050565b60006080820190506127db6000830187611f58565b6127e86020830186611f58565b6127f560408301856120fb565b8181036060830152612807818461278d565b905095945050505050565b60008151905061282181611d82565b92915050565b60006020828403121561283d5761283c611d4c565b5b600061284b84828501612812565b91505092915050565b60008190508160005260206000209050919050565b60006020601f8301049050919050565b600082821b905092915050565b6000600883026128b67fffffffffffffffffffffffffffffffffffffffffffffffffffffffffffffffff82612879565b6128c08683612879565b95508019841693508086168417925050509392505050565b60006128f36128ee6128e984611ec3565b6124ac565b611ec3565b9050919050565b6000819050919050565b61290d836128d8565b612921612919826128fa565b848454612886565b825550505050565b600090565b612936612929565b612941818484612904565b505050565b5b818110156129655761295a60008261292e565b600181019050612947565b5050565b601f8211156129aa5761297b81612854565b61298484612869565b81016020851015612993578190505b6129a761299f85612869565b830182612946565b50505b505050565b600082821c905092915050565b60006129cd600019846008026129af565b1980831691505092915050565b60006129e683836129bc565b9150826002028217905092915050565b6129ff82611e11565b67ffffffffffffffff811115612a1857612a176121ee565b5b612a228254612595565b612a2d828285612969565b600060209050601f831160018114612a605760008415612a4e578287015190505b612a5885826129da565b865550612ac0565b601f198416612a6e86612854565b60005b82811015612a9657848901518255600182019150602085019450602081019050612a71565b86831015612ab35784890151612aaf601f8916826129bc565b8355505b6001600288020188555050505b505050505050565b600081905092915050565b6000612ade82611e11565b612ae88185612ac8565b9350612af8818560208601611e2d565b80840191505092915050565b6000612b108285612ad3565b9150612b1c8284612ad3565b91508190509392505050565b6000604082019050612b3d6000830185611f58565b612b4a60208301846120fb565b9392505050565b7f4e487b7100000000000000000000000000000000000000000000000000000000600052601260045260246000fdfea264697066735822122076648b645de2b7a06dcedb105fe00c80a2e348f396573318701327b798ea29ef64736f6c63430008180033",
  "linkReferences": {},
  "deployedLinkReferences": {}
}